{
  "_format": "hh-sol-artifact-1",
  "contractName": "SaleVault",
  "sourceName": "contracts/SaleVault.sol",
  "abi": [
    {
      "inputs": [
        {
          "internalType": "address",
          "name": "dao_",
          "type": "address"
        },
        {
          "internalType": "address",
          "name": "depositToken_",
          "type": "address"
        },
        {
          "internalType": "address",
          "name": "mintToken_",
          "type": "address"
        },
        {
          "internalType": "uint256",
          "name": "mintTokenPrice_",
          "type": "uint256"
        },
        {
          "internalType": "uint256",
          "name": "maxUserDeposit_",
          "type": "uint256"
        },
        {
          "internalType": "uint256",
          "name": "maxGlobalDeposit_",
          "type": "uint256"
        }
      ],
      "stateMutability": "nonpayable",
      "type": "constructor"
    },
    {
      "inputs": [],
      "name": "dao",
      "outputs": [
        {
          "internalType": "address",
          "name": "",
          "type": "address"
        }
      ],
      "stateMutability": "view",
      "type": "function"
    },
    {
      "inputs": [
        {
          "internalType": "uint256",
          "name": "depositAmount_",
          "type": "uint256"
        }
      ],
      "name": "deposit",
      "outputs": [],
      "stateMutability": "nonpayable",
      "type": "function"
    },
    {
      "inputs": [],
      "name": "depositToken",
      "outputs": [
        {
          "internalType": "address",
          "name": "",
          "type": "address"
        }
      ],
      "stateMutability": "view",
      "type": "function"
    },
    {
      "inputs": [],
      "name": "maxGlobalDeposit",
      "outputs": [
        {
          "internalType": "uint256",
          "name": "",
          "type": "uint256"
        }
      ],
      "stateMutability": "view",
      "type": "function"
    },
    {
      "inputs": [],
      "name": "maxUserDeposit",
      "outputs": [
        {
          "internalType": "uint256",
          "name": "",
          "type": "uint256"
        }
      ],
      "stateMutability": "view",
      "type": "function"
    },
    {
      "inputs": [],
      "name": "mintToken",
      "outputs": [
        {
          "internalType": "address",
          "name": "",
          "type": "address"
        }
      ],
      "stateMutability": "view",
      "type": "function"
    },
    {
      "inputs": [],
      "name": "mintTokenPrice",
      "outputs": [
        {
          "internalType": "uint256",
          "name": "",
          "type": "uint256"
        }
      ],
      "stateMutability": "view",
      "type": "function"
    },
    {
      "inputs": [],
      "name": "totalGlobalDeposit",
      "outputs": [
        {
          "internalType": "uint256",
          "name": "",
          "type": "uint256"
        }
      ],
      "stateMutability": "view",
      "type": "function"
    },
    {
      "inputs": [
        {
          "internalType": "address",
          "name": "",
          "type": "address"
        }
      ],
      "name": "totalUserDeposit",
      "outputs": [
        {
          "internalType": "uint256",
          "name": "",
          "type": "uint256"
        }
      ],
      "stateMutability": "view",
      "type": "function"
    }
  ],
  "bytecode": "0x608060405234801561001057600080fd5b506040516104d33803806104d3833981810160405260c081101561003357600080fd5b508051602082015160408301516060840151608085015160a090950151600080546001600160a01b039687166001600160a01b0319918216179091556001805495871695821695909517909455600280549590931694909316939093179055600391909155600591909155600755610423806100b06000396000f3fe608060405234801561001057600080fd5b50600436106100935760003560e01c8063b6b55f2511610066578063b6b55f2514610104578063c89039c514610123578063cfbc613d1461012b578063d49ef7e614610133578063fd4756091461013b57610093565b806314f1737e146100985780632004ffd9146100d05780634162169f146100f4578063aa9c5fc4146100fc575b600080fd5b6100be600480360360208110156100ae57600080fd5b50356001600160a01b0316610143565b60408051918252519081900360200190f35b6100d8610155565b604080516001600160a01b039092168252519081900360200190f35b6100d8610164565b6100be610173565b6101216004803603602081101561011a57600080fd5b5035610179565b005b6100d86103cc565b6100be6103db565b6100be6103e1565b6100be6103e7565b60046020526000908152604090205481565b6002546001600160a01b031681565b6000546001600160a01b031681565b60055481565b336000908152600460205260409020805482019081905560055410156101e6576040805162461bcd60e51b815260206004820152601b60248201527f75736572206465706f736974206c696d69742065786365656465640000000000604482015290519081900360640190fd5b600680548201908190556007541015610246576040805162461bcd60e51b815260206004820152601d60248201527f676c6f62616c206465706f736974206c696d6974206578636565646564000000604482015290519081900360640190fd5b60015460008054604080516323b872dd60e01b81523360048201526001600160a01b03928316602482015260448101869052905191909316926323b872dd9260648083019360209390929083900390910190829087803b1580156102a957600080fd5b505af11580156102bd573d6000803e3d6000fd5b505050506040513d60208110156102d357600080fd5b50506003546002546040805163313ce56760e01b81529051600093926001600160a01b03169163313ce567916004808301926020929190829003018186803b15801561031e57600080fd5b505afa158015610332573d6000803e3d6000fd5b505050506040513d602081101561034857600080fd5b505160ff16600a0a83028161035957fe5b600254604080516304503fcb60e41b8152336004820152939092046024840181905291519193506001600160a01b031691634503fcb091604480830192600092919082900301818387803b1580156103b057600080fd5b505af11580156103c4573d6000803e3d6000fd5b505050505050565b6001546001600160a01b031681565b60065481565b60075481565b6003548156fea26469706673582212202898e620f2b0b91f77d7f738bbeae1126190cbea405a02b9928a629876e4437964736f6c63430007050033",
  "linkReferences": {},
  "deployedLinkReferences": {}
}